:020000040800F2
:10000000B0070020350C00087103000873030008D6
:10001000770300087B0300087F030008000000004E
:100020000000000000000000000000008303000842
:10003000850300080000000087030008890300080A
:100040004F0C00084F0C00084F0C00084F0C000824
:100050004F0C00084F0C00084F0C00084F0C000814
:100060004F0C00084F0C00084F0C00084F0C000804
:100070004F0C00084F0C00084F0C00084F0C0008F4
:100080004F0C00084F0C00084F0C00084F0C0008E4
:100090004F0C00084F0C00084F0C00084F0C0008D4
:1000A0004F0C00084F0C00084F0C00084F0C0008C4
:1000B0004F0C00084F0C00084F0C00084F0C0008B4
:1000C0004F0C00084F0C00084F0C00084F0C0008A4
:1000D0004F0C0008E10A00084F0C00084F0C000804
:1000E0004F0C00084F0C00084F0C000800F002F8FD
:1000F00000F042F80AA090E8000C82448344AAF180
:100100000107DA4501D100F037F8AFF2090EBAE87D
:100110000F0013F0010F18BFFB1A43F0010318473B
:10012000C4270000E4270000103A24BF78C878C133
:10013000FAD8520724BF30C830C144BF04680C60ED
:10014000704700000023002400250026103A28BF35
:1001500078C1FBD8520728BF30C148BF0B60704739
:10016000642902F00582732902F00683002070479B
:100170001FB51FBD10B510BD02F030FB1146FFF7D3
:10018000F7FF00F095F802F04EFB03B4FFF7F2FF23
:1001900003BC00F0E5FA000070B504460D4600F01F
:1001A0006BFB002836D000F051FB69490870012034
:1001B00000F0A9FA6648007855282BD111E000F02C
:1001C00045FB6449644A12788854084662490978B4
:1001D000405CAA2800D108E05F480078401C5E49D6
:1001E000087000F049FB0028E9D100BF59480078A9
:1001F00021280CD100205949086059490870552020
:1002000000F008FBBB2000F005FB002070BD0020C3
:10021000514908702078FF2824D16078D82821D14E
:1002200001204F490870552000F0F4FAAA2000F090
:10023000F1FA4C49887B00F0EDFA4A49087900F060
:10024000E9FA48498988C1F3072000F0E3FA4549F3
:100250004968C1F3074000F0DDFA42498968080E99
:1002600000F0D8FA3E48007801280DD13B480068DC
:1002700028443A490860002604E0A05D00F0CAFA6C
:10028000701CC6B2AE42F8DB364840683349096894
:1002900088420AD100203149086031490870552050
:1002A00000F0B8FABB2000F0B5FA2F480078ADE7AF
:1002B00090B04FF4A06000F0DDFC00F0E7F94FF4DF
:1002C000612000F05BFA2948016801A802F0ABF850
:1002D0003C2201A9234802F087F9224801F0C9FF16
:1002E000C822AFF24B111F4802F073F82EE000F065
:1002F000C3FA58B3052000F006FA00F0A7FA144933
:10030000087008460078552820D111E000F09EFAC8
:100310001049114A1278885408460F490978405C00
:10032000AA2800D108E00C480078401C0A4908704F
:1003300000F0A2FA0028E9D100BF07480278054979
:10034000084800F024FB002003490870CFE70000B4
:1003500004000020AC000020050000200800002060
:100360000C000020C000002006000020000000203B
:10037000704700BFFEE700BFFEE700BFFEE700BF1B
:10038000FEE7704770477047704700000CB50020CB
:10039000019000906C48006840F480306A49086021
:1003A00000BF6948006800F4003000900198401CCC
:1003B0000190009818B90198B0F5A06FF1D162488A
:1003C000006800F4003010B10120009001E000202E
:1003D00000900098012843D15C48006840F010006C
:1003E0005A4908600846006820F003000860084683
:1003F000006840F002000860534840685249486075
:100400000846406848600846406840F4806048609C
:100410000846406820F47C1048600846406840F474
:10042000E81048600846006840F08070086000BF2F
:100430004548006800F000700028F9D04248406844
:1004400020F00300404948600846406840F0020040
:10045000486000BF3C48406800F00C000828F9D113
:100460000CBD10B5FFF792FF10BD10B536480068FF
:1004700040F00100344908600846406834490840AB
:100480003149486008460068324908402E490860F2
:100490000846006820F4802008600846406820F480
:1004A000FE0048604FF41F008860FFF7DAFF4FF04E
:1004B00000602949086010BD10B50021002000220D
:1004C000214B5B6803F00C0121B1042906D00829F7
:1004D00028D107E0214B224C236027E01F4B204C02
:1004E000236023E0184B5B6803F47010164B5B68C5
:1004F00003F48032022303EB904022B9194B4343AB
:10050000174C23600DE0104B5B6803F4003323B1FC
:10051000144B4343124C236003E0104B4343104CF5
:10052000236003E00D4B0E4C236000BF00BF064B61
:100530005B68C3F303130C4CE15C094B1B68CB40B5
:10054000074C236010BD0000001002400020024054
:100550000000FFF8FFFFF6FE08ED00E000127A0051
:100560001000002000093D001400002000B587B0F5
:10057000012141F2040000F007FFE020ADF818006F
:1005800018208DF81B0003208DF81A0006A93D489D
:1005900000F03EFCE0213B4800F0E7FC0020ADF815
:1005A00004004FF48270ADF806000020ADF808009A
:1005B000ADF80A00ADF80C004FF40070ADF80E0075
:1005C0000820ADF810000020ADF812000720ADF8AB
:1005D000140001A92C4801F065F901212A4801F015
:1005E00006FA07B000BD70B50546002405E0601CA2
:1005F000C4B2C82C01DD002070BD0221224801F0E8
:100600007AFA0028F3D029461F4801F021FA002485
:1006100005E0601CC4B2C82C01DD0020ECE701211C
:10062000194801F068FA0028F3D0174801F012FACF
:10063000C0B2E1E738B504460125A54001210420F8
:1006400000F0A2FEA8B2ADF8000010208DF8030063
:1006500003208DF8020069460A4800F0D9FB38BD36
:1006600070B504460125A540A9B2064800F07FFCFC
:1006700070BD70B504460125A540A9B2014800F03F
:1006800074FC70BD000801400030014010B56FF0EF
:10069000040000F03EFB2E4800682E49B0FBF1F04C
:1006A0002D4908700846007800EB4001C1EBC010EE
:1006B0004FF6FF7101EAC0002849088010BD0146CD
:1006C000254A12784A434FF0E0235A6100229A618A
:1006D0001A46126942F001021A6100BF4FF0E0228F
:1006E000106900F001021AB100F48032002AF5D03E
:1006F0004FF0E022126922F001024FF0E0231A616C
:1007000000229A6170470146144A12884A434FF00A
:10071000E0235A6100229A611A46126942F00102EE
:100720001A6100BF4FF0E022106900F001021AB117
:1007300000F48032002AF5D04FF0E022126922F056
:1007400001024FF0E0231A6100229A617047000015
:100750001000002000127A00240000202600002053
:1007600000BF704700BFEB4A128802F04002002A27
:10077000F9D0C2B2E74B1B1D1A80704710B586B086
:100780000446012144F2050000F0FEFD4FF4007024
:10079000ADF8140003208DF8160018208DF817000E
:1007A00005A9DD4800F034FB4FF48060ADF814007B
:1007B00004208DF8170005A9D74800F029FB252053
:1007C0008DF8100000208DF811008DF81200012026
:1007D0008DF8130004A800F052FA00940020ADF840
:1007E0000400ADF80600ADF80800ADF80C000C20D0
:1007F000ADF80A006946C74800F06DFE012240F2DC
:100800002551C44800F0FFFE0121C24800F0EFFE70
:1008100006B010BD10B504462146BE4800F054FF96
:1008200000BF4021BB4800F0BDFF0028F9D010BD3B
:1008300070B505460E46002400BF04E0295DB548AA
:1008400000F042FF641CB442F8D370BD0020B349ED
:10085000B34A1278885CB2490978491CB04A1170D1
:1008600011460978AF4A1278914204D10021AC4A6E
:100870001170AC4A11707047AA480078704770B583
:10088000C0B004460020E0734FF48071684601F068
:10089000DDFE00265520FFF7BDFFAA20FFF7BAFFB7
:1008A000A07BFFF7B7FF2079FFF7B4FFA188C1F362
:1008B0000720FFF7AFFF6168C1F30740FFF7AAFF0A
:1008C0006168080EFFF7A6FF0FE0FF226946204689
:1008D00001F061FA0646002505E01DF80500FFF766
:1008E00099FF681CC5B2B542F7DBA0680028ECD1BF
:1008F0005520FFF78FFFBB20FFF78CFF40B070BD86
:1009000010B5044688A001F0C9FD8CA001F0C6FD19
:100910008EA0616901F0C2FD8EA001F0BFFD94A020
:10092000A16901F0BBFD94A001F0B8FD90A0E169C0
:1009300001F0B4FD98A001F0B1FD3020015D8CA064
:1009400001F0ACFD9AA001F0A9FD89A0216A01F097
:10095000A5FD9EA001F0A2FD85A0616A01F09EFDAB
:10096000A1A001F09BFD82A0A16A01F097FDA4A0C7
:1009700001F094FD7EA0E16A01F090FDA6A001F0D7
:100980008DFD3120015D7AA001F088FD10BD2DE9BB
:10099000FC5F05460C4600260027B046B146B2462D
:1009A00095F812B0687C0090207813286FD2DFE8A9
:1009B00000F0920A1722272C31363B404B525965E2
:1009C0006F8084608D00607800F00F0B6078C0F35A
:1009D0000210009059462846009A01F051FC7BE035
:1009E00001202874607800F00F0B5946284601F06A
:1009F00062FC019070E06178284601F0C8FC6BE071
:100A00006178284601F0BAFC66E06178284601F07A
:100A1000A3FC61E06178284601F0A7FC5CE0617806
:100A2000284601F07EFC57E06178284601F082FC00
:100A300052E06178284601F086FC607818B90221FE
:100A4000284601F080FC47E0607800F0010128466C
:100A500001F03AFC40E0607800F00101284601F026
:100A600045FC39E0607800F00101284601F050FCB7
:100A700032E06178284601F093FC2DE0A07861789F
:100A800040EA01263146284601F039FC24E022E004
:100A900094F8018094F8029094F803A04FEA08407B
:100AA00040EA092040EA0A073946284601F015FCC9
:100AB00012E02846FFF724FF0EE059462846009A28
:100AC00001F0DEFB2846FFF7DAFE05E0611C284650
:100AD00001F076FC00E000BF00BF2078BDE8FC9F7D
:100AE00010B540F225510B4800F072FE80B1094864
:100AF00000F0EEFD09490B4A127888540948007845
:100B0000401C0849087040F22551024800F08AFE56
:100B100010BD00000038014000080140FC0000202A
:100B200029000020280000205265706F7274436114
:100B30006D657261496E666F0D0A000043616D65F7
:100B4000726120547970653A0000000025730D0A27
:100B50000000000043616D65726120537570706F15
:100B60007274205265736F6C7574696F6E3A000011
:100B700025640D0A0000000043616D657261205319
:100B80007570706F7274207370656369616C6566EF
:100B900066656374733A000043616D65726120534A
:100BA0007570706F727420466F6375733A00000041
:100BB00043616D657261204578706F737572652051
:100BC00056616C7565204D61783A000043616D6532
:100BD0007261204578706F737572652056616C750F
:100BE00065204D696E3A000043616D657261204772
:100BF00061696E2056616C7565204D61783A000020
:100C000043616D657261204761696E2056616C7544
:100C100065204D696E3A000043616D657261205335
:100C20007570706F72742053686172706E65737343
:100C30003A0000000948804709480047FEE7FEE700
:100C4000FEE7FEE7FEE7FEE7FEE7FEE7FEE7FEE77C
:100C500004480549054A064B704700006B0400082C
:100C6000ED000008B0010020B0070020B003002014
:100C7000B003002031490143314A1160704770B51B
:100C8000002100230F22C47804B32D4C246804F4FF
:100C9000E064C4F5E064210AC1F10403CA40447869
:100CA00004FA03F18478144021430901254C0678A5
:100CB000A155047804F01F050124AC4005786D119E
:100CC000AD0005F1E025C5F8004109E0047804F025
:100CD0001F050124AC401C4D0678761145F82640CE
:100CE00070BD1A4A0A400243154B1B1F1A60704719
:100CF00039B1134A121D12680243114B1B1D1A60B1
:100D000006E00F4A121D126882430D4B1B1D1A602C
:100D10007047042808D14FF0E021096941F004012F
:100D20004FF0E022116107E04FF0E021096921F066
:100D300004014FF0E0221161704700000000FA0545
:100D40000CED00E000E400E080E100E080FFFF1F28
:100D500010B50446CC48844208D10121042000F09B
:100D60002DFB0021042000F029FB46E0C748844207
:100D700008D10121082000F021FB0021082000F00B
:100D80001DFB3AE0C248844208D10121102000F046
:100D900015FB0021102000F011FB2EE0BD4884421D
:100DA00008D10121202000F009FB0021202000F0C3
:100DB00005FB22E0B848844208D10121402000F020
:100DC000FDFA0021402000F0F9FA16E0B348844211
:100DD00008D10121802000F0F1FA0021802000F0EC
:100DE000EDFA0AE0AE48844207D10121801500F0F7
:100DF000E5FA0021A01500F0E1FA10BD10B50121BF
:100E0000084600F0DBFA0021012000F0D7FA10BDFF
:100E10002DE9F04102460025002600200023002491
:100E2000002791F803C00CF00F0591F803C00CF0F7
:100E3000100CBCF1000F03D091F802C04CEA05057C
:100E400091F800C0BCF1000F31D0146800202BE0F5
:100E50004FF0010C0CFA00F3B1F800C00CEA0306E5
:100E60009E4220D183004FF00F0C0CFA03F7BC43D5
:100E700005FA03FC4CEA040491F803C0BCF1280F06
:100E800006D14FF0010C0CFA00FCC2F814C00AE0C5
:100E900091F803C0BCF1480F05D14FF0010C0CFADA
:100EA00000FCC2F810C0401C0828D1D31460B1F86F
:100EB00000C0BCF1FF0F34DD546800202EE000F1CB
:100EC000080C4FF0010808FA0CF3B1F800C00CEA66
:100ED00003069E4221D183004FF00F0C0CFA03F75A
:100EE000BC4305FA03FC4CEA040491F803C0BCF1CE
:100EF000280F05D100F1080C08FA0CF8C2F814808C
:100F000091F803C0BCF1480F07D100F1080C4FF075
:100F1000010808FA0CF8C2F81080401C0828CED34B
:100F20005460BDE8F0814FF6FF71018002218170AD
:100F30000421C17070470246002093680B400BB13A
:100F4000012000E0002070470146886880B27047A9
:100F500002460020D3680B400BB1012000E00020C6
:100F600070470146C86880B27047016170474161AF
:100F700070470AB1016100E041617047C16070478C
:100F80004FF480320A4382618161826182698269A1
:100F9000704702460020434B18684FF68073184094
:100FA00040EA021008433F4B186070473E49C86151
:100FB0007047F0B50A46002300240021002500F008
:100FC0000046B6F1004F02D1364EF16901E0354ED0
:100FD0007168C0F3034583B200F44016B6F5401FB4
:100FE00008D121F070612F4E766826F070662D4F83
:100FF0007E6012E000F48016B6F5801F06D103264D
:1010000006FA05F4A14341F0706106E0460D360191
:1010100003FA06F6B14341F0706122B1460D360184
:1010200003FA06F6314300F00046B6F1004F02D154
:101030001C4EF16101E01B4E7160F0BD30B5002225
:101040008B071C0F0F2303FA04F2164B08338C1086
:1010500053F824309343134C08348D1044F8253052
:1010600023468C1053F824308C07240F00FA04F424
:1010700023430C4C08348D1044F8253030BD0A4908
:10108000DC3108607047000000080140000C01409E
:10109000001001400014014000180140001C0140F4
:1010A000002001400000014000002042DF480068AD
:1010B00040F00100DD49086008464068DC4908400E
:1010C000DA49486008460068DA490840D7490860AC
:1010D0000846006820F4802008600846406820F434
:1010E000FE0048604FF41F0088607047CF490968D0
:1010F00021F48031CD4A11601146096821F4802124
:101100001160B0F5803F03D0B0F5802F0ED106E01E
:10111000C649096841F48031C44A116007E0C349F7
:10112000096841F4A021C14A116000E000BF00BF7E
:10113000704710B501460022002300204A11012A01
:1011400002D1BA4C236806E0022A02D1B74C236AC6
:1011500001E0B64C636A01F01F02012494401C4078
:101160000CB1012000E0002010BD38B50020009037
:101170000024002500BF3120FFF7DBFF0546009863
:10118000401C00900098B0F5A06F01D0002DF2D067
:101190003120FFF7CEFF08B1012400E000242046F3
:1011A00038BD01460020A14A106820F0F80040EA4E
:1011B000C10010607047A0490860704702460020D7
:1011C0009A4B586820F47C1042EA01031843974B6D
:1011D0005860704798490866704701460020934A56
:1011E000506820F003000843506070478F48406803
:1011F00000F00C007047014600208C4A506820F037
:10120000F00008435060704701460020874A50684C
:1012100020F4E06008435060704701460020834A94
:10122000506820F4605040EAC1005060704729B116
:101230007E4A527A02437D4B5A7204E07B4A527ACC
:1012400082437A4B5A7270477B49D83108607047A5
:1012500001460020754A506820F440400843506021
:1012600070470021714A20321170704A82F82010B4
:10127000012802D004280AD104E001216B4A20325F
:10128000117005E00521694A2032117000E000BFAD
:1012900000BF70476949086070476449096A0143A3
:1012A000624A11627047654944390860704730B539
:1012B00000210022002400235C4D6D6805F00C0124
:1012C00021B1042905D0082923D105E05C4D056032
:1012D00022E05B4D05601FE0544D6D6805F470120F
:1012E000524D6D6805F48034022505EB92421CB91D
:1012F000544D554305600BE04C4D6D6805F40035C9
:101300001DB1504D5543056002E04D4D55430560FC
:1013100002E04B4D056000BF00BF444D6D6805F015
:10132000F0010909484D6B5C0568DD4045603F4DA3
:101330006D6805F4E061090A434D6B5C4568DD406A
:1013400085603A4D6D6805F46051C90A3E4D6B5C8D
:101350004568DD40C560354D6D6805F44041890B39
:101360003A4D6B5CC568B5FBF3F5056130BD29B13D
:101370002E4A526902432D4B5A6104E02B4A5269AE
:1013800082432A4B5A61704729B1284A9269024325
:10139000264B9A6104E0254A92698243234B9A6165
:1013A000704729B1214AD2690243204BDA6104E037
:1013B0001E4AD26982431D4BDA61704729B11B4A2C
:1013C000D2680243194BDA6004E0184AD2688243BB
:1013D000164BDA60704729B1144A12690243134B65
:1013E0001A6104E0114A12698243104B1A61704776
:1013F00012494039086070470F49C86470470B496B
:10140000C87170470948406A40F0807007494862D7
:10141000704701460020054A92680A400AB101203F
:1014200000E00020704701498872704700100240B8
:101430000000FFF8FFFFF6FE000042428004424237
:1014400000127A0000093D0030000020400000201A
:1014500010B50446FB48844209D101218803FFF7F7
:10146000ADFF00214FF48040FFF7A8FF32E0F648BF
:10147000844209D101214804FFF7ADFF00214FF458
:101480000030FFF7A8FF25E0F048844209D1012190
:101490008804FFF7A0FF00214FF48020FFF79BFF97
:1014A00018E0EB48844209D10121C804FFF793FFFB
:1014B00000214FF40020FFF78EFF0BE0E548844247
:1014C00008D101210805FFF786FF00214FF48010A5
:1014D000FFF781FF10BD2DE9F04786B005460E46A7
:1014E0000024A24600BFA1460027B08900B100BF7A
:1014F0002F462C8A4CF6FF700440F08804432C825F
:10150000AC894EF6F3100440B088318908437189E4
:1015100008430443AC81AC8A4FF6FF400440B089D5
:101520000443AC8201A8FFF7C2FEC648874202D13D
:10153000DDF810A001E0DDF80CA0A88900F400405F
:1015400040B10AEBCA0000EB0A1031684900B0FB59
:10155000F1F807E00AEBCA0000EB0A1031688900D5
:10156000B0FBF1F86420B8FBF0F00401200964211D
:1015700001FB1089A88900F4004040B1322000EB43
:10158000C900B0FBF1F000F00700044308E032208E
:1015900000EB09106421B0FBF1F000F00F000443F0
:1015A0002C8106B0BDE8F0874FF416510160002190
:1015B0008180C18001810C2141810021818170479E
:1015C00010B502460020108A4FF2FF0318400B8826
:1015D0004C8823438C882343CC88234318431082B0
:1015E00010BD0021018041808180C180704721B100
:1015F000828942F40052828104E082894DF6FF73B1
:101600001A4082817047F0B5034600240026002569
:10161000002040F66A17B94200D100BF1846C1F356
:10162000421401F01F06012707FA06F5012C01D12B
:101630000C3004E0022C01D1103000E014301AB15B
:1016400007682F43076002E00768AF430760F0BDFB
:101650001AB1838A0B43838202E0838A8B4383829D
:101660007047028A4FF6F0731A400282028A0A43D8
:101670000282704782894FF2FF731A408281828909
:101680000A438281704721B1828942F0020282813D
:1016900004E082894FF6FD731A4082817047028A06
:1016A0004FF6DF731A400282028A0A4302827047B1
:1016B00021B1028A42F48042028204E0028A4BF69F
:1016C000FF731A4002827047C1F30802828070479C
:1016D00001468888C0F308007047818941F0010104
:1016E00081817047028BD2B20283028B42EA0122CF
:1016F00002837047028B02F47F420283028B0A430B
:101700000283704721B1828A42F02002828204E083
:10171000828A4FF6DF731A408282704721B1828A33
:1017200042F01002828204E0828A4FF6EF731A4080
:101730008282704721B1828A42F00802828204E0EC
:10174000828A4FF6F7731A408282704721B18289EC
:1017500042F40042828103E08289C2F30E02828158
:10176000704721B1828A42F40062828204E0828A58
:101770004FF2FF731A4082827047828A4FF6FB73E2
:101780001A408282828A0A438282704721B1828A09
:1017900042F00202828204E0828A4FF6FD731A4010
:1017A0008282704702460020B1F5007F00D100BF61
:1017B00013880B400BB1012000E00020704701F4BA
:1017C0000072B2F5007F00D100BFCA4302807047AB
:1017D00070B50246002400230025002040F66A165A
:1017E000B14200D100BFC1F3421501F01F03012631
:1017F00006FA03F3012D02D19689334006E0022D4B
:1018000002D1168A334001E0968A33400C12012639
:1018100006FA04F41688344013B10CB1012000E03C
:10182000002070BD10B50022002340F66A14A142CA
:1018300000D100BF0A1201249440A3B2DC4304800B
:1018400010BD000000380140004400400048004046
:10185000004C00400050004010B50446BE48844291
:1018600008D101218014FFF7A9FD0021A014FFF782
:10187000A5FD16E0B948844208D101210014FFF704
:10188000AAFD00212014FFF7A6FD0AE0B448844217
:1018900007D10121C013FFF79EFD0021E013FFF7E0
:1018A0009AFD10BD10B50022028802F441520B8847
:1018B0004C8823438C882343CC8823430C892343BF
:1018C0004C8923438C892343CC8923431A430280C8
:1018D000838B4FF2FF74234083830B8A038210BDF6
:1018E0002DE9F04F85B005460C464FF00009022760
:1018F0004FF000084FF0010B0026B246A88B4FF2C4
:1019000040010840A88302202884B5F81C90A068F4
:10191000022801D100BF38E0A08810B94FF0010BB8
:1019200001E04FF0020B8D48854200D100E000BF7E
:101930006846FFF7BCFCDDF800A0E088B0F5007F4A
:101940000AD14FEA1A2000EB80004000A168B0FBEA
:10195000F1F0401D86B20BE04FEA4B10BAFBF0F0FD
:1019600000EB80004000A168B0FBF1F0401D86B2A2
:101970000A20B6FBF0F606F00108A6EB0800C0F35B
:101980004F074FF6FF7000EA0828022F01DBFF2FF8
:1019900002DD02274FF00008E08840EA08003843E3
:1019A0002884A088A18908436188084321880843C6
:1019B00040F4006040EA0909A5F81C9005B0BDE8B4
:1019C000F08F0021018041808180C18001814181AF
:1019D0008181C181072101827047002101804180FE
:1019E0008180C1800221816000218181704721B105
:1019F000028842F04002028004E002884FF6BF7382
:101A00001A400280704721B1828B42F48062828347
:101A100004E0828B4FF6FF331A408283704730B563
:101A2000002400230C110125A540ABB21AB1858812
:101A30001D43858002E085889D43858030BD1AB1B5
:101A400083880B43838002E083888B4383807047C5
:101A5000818170470146888970474FF6FF62914245
:101A600004D0028842F48072028004E002884FF6BB
:101A7000FF631A400280704721B1828842F004025D
:101A8000828004E082884FF6FB731A4082807047A0
:101A900002884FF2FF731A40028002880A430280D4
:101AA0007047018841F480510180704721B102885C
:101AB00042F40052028004E002884DF6FF731A409F
:101AC0000280704702460020012901D0108B00E0FF
:101AD000908A70470146088A7047B1F5804F04D15B
:101AE000028842F48042028004E002884BF6FF73D1
:101AF0001A40028070470246002013890B400BB148
:101B0000012000E000207047CA4302817047F0B511
:101B10000246002000240023002501F00F070126C3
:101B2000BE40B4B20B1101269E40B3B2968806EABD
:101B300003051689264016B10DB1012000E00020F2
:101B4000F0BD10B5002201F00F040123A3409AB2AA
:101B5000D343038110BD0000003001400038004035
:101B6000003C004010B50446FEF700FD2068FEF77B
:101B700061FD2068FEF774FD10BD10B50446606B72
:101B8000D0F88C102046884710BD70B504460D462D
:101B90001646606B32462946036E2046984770BD54
:101BA00070B504460D46606B2946426E204690474C
:101BB00070BD10B504462046FFF7D4FF4022072130
:101BC0002046FFF7E2FF2046FFF7D7FF40212046DF
:101BD000FFF7E6FF60732046FFF7CFFF607B00F062
:101BE0000F006073607B401E6073607BF94A02EBFC
:101BF0004011202204F1140000F0F6FC607BF6494D
:101C000011F810006074607B01EB40004078A07414
:101C1000607BF04901EB4010827F0A212046FFF7EC
:101C2000B4FF2046FFF7A9FF002010BD10B5044601
:101C3000606BC16F2046884710BD70B504460D46E5
:101C40001646606B32462946D0F8803020469847C9
:101C500070BD10B50446606B416F2046884710BDCB
:101C600010B50446606B816F2046884710BD10B5E3
:101C70000446606B016F2046884710BD10B50446CE
:101C80002046FFF7F4FF2046FFF7EAFF2046FFF764
:101C9000E0FF00BF042244212046FFF7CEFF0028CA
:101CA000F8D02046FFF7C2FFA060A0686060002067
:101CB000E07310BD01468868704770B505460C4654
:101CC000224629212846FFF760FF2846FFF755FFE7
:101CD000002070BD10B50446606BD0F88810204617
:101CE000884710BD70B504460D461646607CB0426C
:101CF00002D1A07CA84212D06674A673A5743246A5
:101D000020212046FFF741FF2046FFF736FF2A46F5
:101D100021212046FFF739FF2046FFF72EFF2046FE
:101D2000FFF7D8FF002070BD2DE9F04104460D46B5
:101D300016461F46607CB04202D1A07CA84212D059
:101D40006674A673A574324620212046FFF71DFF56
:101D50002046FFF712FF2A4621212046FFF715FFF4
:101D60002046FFF70AFFFF2F00DDFF273A4601213B
:101D70002046FFF70AFF2046FFF7ACFF0020BDE832
:101D8000F08181630273704710B50446606B01698E
:101D90002046884710BD70B504460D461646606B58
:101DA00032462946436D2046984770BDF0B5C1B014
:101DB00004460D460120A073207401270026A06B65
:101DC00010B9701E41B0F0BD012220212046FFF75E
:101DD000DCFE2046FFF7D1FE45F08002212120469F
:101DE000FFF7D3FE2046FFF7C8FE2046FFF772FF3D
:101DF00013E0227B01A92046FFF7CDFF06464EB136
:101E0000314601A8A26B9047074637B92046FFF735
:101E1000BBFF05E02046FFF75DFF207C0028E8D1EE
:101E200000BF0020CEE710B5044601206074A07406
:101E300000202074A0606060012220212046FFF76E
:101E4000A4FE2046FFF799FE002010BD70B50546A0
:101E50000C46224626212846FFF797FE2846FFF724
:101E60008CFE002070BD70B506460D460024012D85
:101E700001D144F0800444F0020422462A21304675
:101E8000FFF783FE3046FFF778FE002070BD70B587
:101E900006460D460024012D01D144F0800400BF08
:101EA00022462A213046FFF770FE3046FFF765FED6
:101EB000002070BD70B505460C46687B012802D134
:101EC000601E46490C5CC4F307222B212846FFF70D
:101ED0005CFE2846FFF751FEE2B22C212846FFF7B0
:101EE00054FE2846FFF749FE002070BD70B5064637
:101EF0000D460024012D01D144F0800444F001047A
:101F000022462A213046FFF740FE3046FFF735FED5
:101F1000002070BD70B505460C46C4F307422D2164
:101F20002846FFF732FE2846FFF727FEC4F30722B4
:101F30002E212846FFF729FE2846FFF71EFEE2B2B3
:101F40002F212846FFF721FE2846FFF716FE002026
:101F500070BD70B505460C46224627212846FFF77E
:101F600014FE2846FFF709FE002070BD70B5054637
:101F70000C46224624212846FFF707FE2846FFF795
:101F8000FCFD002070BD70B505460C46224625219B
:101F90002846FFF7FAFD2846FFF7EFFD002070BD49
:101FA00070B505460C46224623212846FFF7EDFD75
:101FB0002846FFF7E2FD002070BD70B505460C46CF
:101FC000224628212846FFF7E0FD2846FFF7D5FDE9
:101FD000002070BD10010020880000208C0000202F
:101FE00070B505460C46224622212846FFF7CDFD56
:101FF0002846FFF7C2FD002070BD10B5044601223F
:1020000004212046FFF7C1FD10BD10B50446022291
:1020100004212046FFF7B9FD10BD10B5044601228A
:1020200004212046FFF7B1FD10BD2DE9F041044623
:102030004FF0000845212046FFF7B2FD0546462136
:102040002046FFF7ADFD064647212046FFF7A8FDD5
:102050000746380440EA062040EA05084046BDE845
:10206000F0812DE9F04106460F46144639463046C8
:10207000FFF796FD054625402846BDE8F08110B5DE
:1020800004463C20FEF7AFFA10BD70B504460025AB
:102090002068FEF7E5FA3D20FEF7A5FA0020FEF7DE
:1020A000A2FA0020FEF79FFA05462068FEF7E1FA43
:1020B000A068401EA060284670BD10B50446606B45
:1020C000D0F884102046884710BD10B50446606BD8
:1020D000816C2046884710BD2DE9F04104460F462B
:1020E0001546FF2D00DC15B90020BDE8F081204623
:1020F000FFF7EBFF08B90020F7E7A068A84200D27D
:10210000257A2068FEF7ACFA2046FFF7D6FFE07B81
:1021100020B90120E0730020FEF765FA002605E0F3
:102120000020FEF760FAB855701CC6B2AE42F7DB6D
:102130002068FEF79EFAA068401BA0602846D4E7FE
:1021400070B504460D461646606B32462946C36E8E
:102150002046984770BD70B505460C46164644F0BB
:10216000800132462846FFF7EBFF70BD70B504468C
:102170000D46606B2946826E2046904770BD70B553
:1021800005460C4604F07F012846FFF7EFFF0646A0
:10219000304670BD70B504460D4616462068FEF701
:1021A0005FFAE8B2FEF71FFAF0B2FEF71CFA2068F9
:1021B000FEF75FFA0120FEF7A6FA012070BD10B508
:1021C00004462068FEF755FA10BD10B50446206895
:1021D000FEF746FA10BD70B504460D462068FEF7BE
:1021E0003FFAE8B2FEF7FFF90020FEF7FCF90646D9
:1021F0000020FEF7F8F906462068FEF73AFA304666
:1022000070BD10B5044602E00220FEF77CFA4421BE
:102210002046FFF7C5FC00F003000228F4D110BDF2
:102220002DE9F04105460C462678677894F802803F
:1022300032460B212846FFF7A8FC3A460C212846D7
:10224000FFF7A3FC42460D212846FFF79EFCBDE8A0
:10225000F08110B50446072202212046FFF795FCC5
:1022600010BD10B50446052202212046FFF78DFC63
:1022700010BD10B50446606B01682046884710BD4C
:1022800070B504460D461646606B324629464368D3
:102290002046984770BD2DE9F04104460D4616468C
:1022A0001F46606B3B4632462946D0F808C02046A0
:1022B000E047BDE8F08170B504460D46606B2946E5
:1022C000C2682046904770BD70B504460D46606BED
:1022D000294642692046904770BD70B504460D46B8
:1022E000606B294682692046904770BD70B50446F0
:1022F0000D46606B2946C2692046904770BD70B597
:1023000004460D46606B2946026A2046904770BD20
:1023100070B504460D46606B2946426A20469047D8
:1023200070BD70B504460D46606B2946826A204632
:10233000904770BD70B504460D46606B2946C26A71
:102340002046904770BD70B504460D46606B294627
:10235000026B2046904770BD70B504460D46606B19
:102360002946426B2046904770BD70B504460D4625
:10237000606B2946826B2046904770BD70B504465D
:102380000D46606B2946C26B2046904770BD70B504
:1023900004460D46606B2946026C2046904770BD8E
:1023A00070B504460D46606B2946426C2046904746
:1023B00070BD10B50446606B816D2046884710BD26
:1023C00070B504460D46606B2946C26D20469047A5
:1023D00070BD70B504460D461646606B3246294600
:1023E000D0F898302046984770BD10B50446606B11
:1023F000D0F890102046884710BD10B50446606B99
:10240000D0F894102046884710BD10B50446606B84
:10241000C16C2046884710BD10B50446606B016D45
:102420002046884710BD30B58FB005460C462022A7
:102430001249134800F0D8F82022124910482030E1
:1024400000F0D2F810481149098801801049098824
:10245000418000208DF80D0001208DF80E00002035
:102460008DF80F008DF8100000940A480D903C2262
:102470006946284600F0B8F80FB030BD440000208F
:10248000100100206400002088000020840000204B
:102490008600002040280008704700000FB404495F
:1024A00010B503AA029800F06BF910BC5DF814FB9C
:1024B0002C0000202DE9F0410E4604460020206249
:1024C0002046E168884730B3252805D0D4E90121AA
:1024D0009047206A401CF2E7E168204600278847C1
:1024E000050018D0A5F14100192802D820354FF475
:1024F00000673246294620462760FDF731FE40B18D
:10250000012804D0F61D26F007060836D8E7361D48
:10251000D6E72846DAE7206ABDE8F08170B50C46B8
:102520000546012A05D02878800600D5EA690023EF
:1025300002E0012305E05B1C934202D2E05C00282C
:10254000F9D1A869E618C01AA861286A1844286257
:102550002846AFF3008004E0D5E9012114F8010B0F
:102560009047B442F8D32846AFF3008070BD000016
:102570002DE9F0410646002410687529314616A55C
:1025800010D0AFF30080002802DA404213A507E024
:1025900031688A0701D512A502E0490704D511A5C3
:1025A000012401E0AFF3008000210A2206F1240794
:1025B00009E0B0FBF2FCB0FBF2F302FB1C00303090
:1025C00078541846491C0028F3D123462A46304641
:1025D000BDE8F04100F065B8000000002D000000EB
:1025E0002B0000002000000010B5203AC0F00B8046
:1025F000B1E81850203AA0E81850B1E81850A0E807
:102600001850BFF4F5AF5FEA027C24BFB1E8185060
:10261000A0E8185044BF18C918C0BDE810405FEAD0
:10262000827C24BF51F8043B40F8043B08BF70474C
:10263000D20728BF31F8023B48BF11F8012B28BF51
:1026400020F8023B48BF00F8012B70474FF0000212
:1026500000B5134694469646203922BFA0E80C5098
:10266000A0E80C50B1F12001BFF4F7AF090728BF73
:10267000A0E80C5048BF0CC05DF804EB890028BFEF
:1026800040F8042B08BF704748BF20F8022B11F018
:10269000804F18BF00F8012B704770477047704794
:1026A00070472DE9F0470D4699469246044600F1E1
:1026B00024080168880604D5E06921F01001216032
:1026C00000E00120A84201DD471B00E00027A169CE
:1026D0007A1902EB0900081AA0612078C00602D41A
:1026E0002046AFF30080002608E0D4E901211AF863
:1026F00006009047206A401C761C20624E45F4DBA1
:102700002078C0060AD52046AFF3008006E0D4E961
:10271000012130209047206A401C2062381EA7F11A
:102720000107F4DC07E0D4E9012118F8050090471F
:10273000206A401C2062281EA5F10105F3DC20461A
:10274000AFF300802078000602D50220BDE8F087B4
:102750000120FBE710B5436913B1AFF3008001E03E
:10276000FFF7DCFE012010BD127800F124010A7091
:1027700000224A700122EDE711684FF0FF32E9E7CD
:10278000074B70B50D467B4400F011F8044628460F
:1027900000F020F810B14FF0FF3070BD204670BD42
:1027A000DBDFFFFF01694A1C02610878704700B552
:1027B0008FB0CDE901310021059105497944CDE97A
:1027C000031011466846FFF775FE0FB000BD00000C
:1027D000E5FFFFFF007B00F080007047754600F0CA
:1027E0002BF8AE4605006946534620F007008546A3
:1027F00018B020B5FEF72CFABDE820404FF00006D7
:102800004FF000074FF000084FF0000B21F00701D8
:10281000AC46ACE8C009ACE8C009ACE8C009ACE81B
:10282000C0098D46704710B50446AFF300802046BE
:10283000BDE81040FDF7A9BC0048704750010020DA
:10284000B31B0008E51C0008291D0008AD1D000889
:10285000271E0008ED1E0008151F00088F1E000827
:10286000B51E0008671E00084D1E0008531F000813
:10287000BB1C00086D1F0008871F0008A11F00086F
:10288000E11F0008BB1F0008B51C0008BF2100089D
:10289000CB210008D92000088B2000082122000845
:1028A000572100087F210008D72100089521000842
:1028B000FB1F00080B2000081B2000082B2000082D
:1028C000632000087F2000087D1C00080322000808
:1028D0005322000863220008831D0008334D500076
:1028E000354D50000429000800000020AC00000015
:1028F00028010008B0290008AC00002004070000EF
:102900004401000804000000FF0001000000000076
:102910000000000000A24A040000000000000000C7
:10292000010203040607080900000000000000007F
:102930000000000000000000010203040102030483
:102940000607080902040608E0280008D60200006D
:10295000FF00000030750000E8030000FF030000E6
:102960000A00000001007800DC280008D601000001
:102970003F01000078050000640000001F00000017
:1029800001000000000178000109010800000000BA
:102990000010183034383B3F727476787A7C7EF0C1
:1029A000F1F2F3F4F5F6F7F8F9FAFBFCFDFEFF009F
:04000005080000ED02
:00000001FF
